:020000040800F2
:100000000000012061180008B1180008B1180008AC
:10001000B1180008B1180008B1180008000000006D
:10002000000000000000000000000000B1180008FF
:10003000B118000800000000B1180008C114000841
:1000400000000000B1180008B1180008B11800083D
:10005000B1180008B1180008B1180008B11800085C
:10006000B1180008B1180008B1180008B11800084C
:10007000B1180008B1180008B1180008B11800083C
:10008000B1180008B1180008B118000800000000FD
:10009000000000000000000000000000B11800088F
:1000A000B1180008B1180008B1180008B11800080C
:1000B000B1180008B1180008B1180008B1180008FC
:1000C000B1180008B1180008B1180008B1180008EC
:1000D000B1180008B1180008B118000800000000AD
:1000E000B1180008B1180008B1180008000000009D
:1000F000000000000000000000000000B11800082F
:1001000000000000B1180008B1180008B11800087C
:1001100000000000000000000000000000000000DF
:10012000B1180008B1180008B1180008B11800088B
:10013000B1180008000000000000000000000000EE
:10014000000000000000000000000000B1180008DE
:10015000B1180008B1180008B1180008B11800085B
:10016000B1180008B11800080000000000000000ED
:10017000000000000000000000000000000000007F
:10018000000000000000000000000000000000006F
:04019000B11800089A
:1001A00010B5054C237833B9044B13B10448AFF3B1
:1001B00000800123237010BD50A00020000000002B
:1001C000E421000808B5034B1BB103490348AFF312
:1001D000008008BD0000000054A00020E4210008B9
:1001E00001F0FF01102A2BDB10F0070F08D010F8E8
:1001F000013B013A8B422DD010F0070F42B3F6D1EC
:10020000F0B441EA012141EA014122F007047FF004
:1002100000070023F0E80256083C85EA010586EA5B
:10022000010685FA47F5A3FA87F586FA47F6A5FA97
:1002300087F68EB9EED1F0BC01F0FF0102F00702A3
:1002400032B110F8013B013A83EA010313B1F8D14E
:100250000020704701387047002D06BF354603382F
:10026000073815F0010F07D1013015F4807F02BF68
:10027000013015F4C03F0130F0BC0138704700BFB9
:1002800081F0004102E000BF83F0004330B54FEA47
:1002900041044FEA430594EA050F08BF90EA020FB4
:1002A0001FBF54EA000C55EA020C7FEA645C7FEA47
:1002B000655C00F0E2804FEA5454D4EB5555B8BF6A
:1002C0006D420CDD2C4480EA020281EA030382EADB
:1002D000000083EA010180EA020281EA0303362D6D
:1002E00088BF30BD11F0004F4FEA01314FF4801C40
:1002F0004CEA113102D0404261EB410113F0004F52
:100300004FEA03334CEA133302D0524263EB430308
:1003100094EA050F00F0A780A4F10104D5F1200EA6
:100320000DDB02FA0EFC22FA05F2801841F1000101
:1003300003FA0EF2801843FA05F359410EE0A5F1D5
:1003400020050EF1200E012A03FA0EFC28BF4CF006
:10035000020C43FA05F3C01851EBE37101F00045BC
:1003600007D54FF0000EDCF1000C7EEB00006EEBC9
:100370000101B1F5801F1BD3B1F5001F0CD3490853
:100380005FEA30004FEA3C0C04F101044FEA4452AA
:1003900012F5800F80F09A80BCF1004F08BF5FEA31
:1003A000500C50F1000041EB045141EA050130BD11
:1003B0005FEA4C0C404141EB0101013C28BFB1F523
:1003C000801FE9D291F0000F04BF01460020B1FA6E
:1003D00081F308BF2033A3F10B03B3F120020CDA41
:1003E0000C3208DD02F1140CC2F10C0201FA0CF01F
:1003F00021FA02F10CE002F11402D8BFC2F1200C84
:1004000001FA02F120FA0CFCDCBF41EA0C01904039
:10041000E41AA2BF01EB0451294330BD6FEA040482
:100420001F3C1CDA0C340EDC04F11404C4F120026D
:1004300020FA04F001FA02F340EA030021FA04F37F
:1004400045EA030130BDC4F10C04C4F1200220FAD6
:1004500002F001FA04F340EA0300294630BD21FA14
:1004600004F0294630BD94F0000F83F4801306BFDA
:1004700081F480110134013D4EE77FEA645C18BFCE
:100480007FEA655C29D094EA050F08BF90EA020F65
:1004900005D054EA000C04BF1946104630BD91EA5D
:1004A000030F1EBF0021002030BD5FEA545C05D160
:1004B0004000494128BF41F0004130BD14F580049F
:1004C0003CBF01F5801130BD01F0004545F0FE4113
:1004D00041F470014FF0000030BD7FEA645C1ABF48
:1004E000194610467FEA655C1CBF0B46024650EA7F
:1004F000013406BF52EA033591EA030F41F40021AB
:1005000030BD00BF90F0000F04BF0021704730B530
:100510004FF4806404F132044FF000054FF0000105
:1005200050E700BF90F0000F04BF0021704730B5C6
:100530004FF4806404F1320410F0004548BF40429B
:100540004FF000013EE700BF42004FEAE2014FEAF0
:1005500031014FEA02701FBF12F07F4393F07F4FCB
:1005600081F06051704732F07F4208BF704793F0CE
:100570007F4F04BF41F40021704730B54FF46074E1
:1005800001F0004521F000411CE700BF50EA0102E4
:1005900008BF704730B54FF000050AE050EA01028D
:1005A00008BF704730B511F0004502D5404261EBFD
:1005B00041014FF4806404F132045FEA915C3FF43E
:1005C000D8AE4FF003025FEADC0C18BF03325FEADB
:1005D000DC0C18BF033202EBDC02C2F1200300FA8C
:1005E00003FC20FA02F001FA03FE40EA0E0021FAB1
:1005F00002F11444BDE600BF70B54FF0FF0C4CF49F
:10060000E06C1CEA11541DBF1CEA135594EA0C0F50
:1006100095EA0C0F00F0DEF82C4481EA030621EA8B
:100620004C5123EA4C5350EA013518BF52EA0335C6
:1006300041F4801143F4801338D0A0FB02CE4FF078
:100640000005E1FB02E506F00042E0FB03E54FF0A8
:100650000006E1FB03569CF0000F18BF4EF0010EA0
:10066000A4F1FF04B6F5007F64F5407404D25FEA9C
:100670004E0E6D4146EB060642EAC62141EA55514F
:100680004FEAC52040EA5E504FEACE2EB4F1FD0C91
:1006900088BFBCF5E06F1ED8BEF1004F08BF5FEA0F
:1006A000500E50F1000041EB045170BD06F00046C1
:1006B00046EA010140EA020081EA0301B4EB5C046E
:1006C000C2BFD4EB0C0541EA045170BD41F4801166
:1006D0004FF0000E013C00F3AB8014F1360FDEBF8B
:1006E000002001F0004170BDC4F10004203C35DA67
:1006F0000C341BDC04F11404C4F1200500FA05F3EA
:1007000020FA04F001FA05F240EA020001F000428A
:1007100021F0004110EBD37021FA04F642EB060100
:100720005EEA430E08BF20EAD37070BDC4F10C042A
:10073000C4F1200500FA04F320FA05F001FA04F2EE
:1007400040EA020001F0004110EBD37041F10001DA
:100750005EEA430E08BF20EAD37070BDC4F12005E5
:1007600000FA05F24EEA020E20FA04F301FA05F24D
:1007700043EA020321FA04F001F0004121FA04F2F5
:1007800020EA020000EBD3705EEA430E08BF20EAC5
:10079000D37070BD94F0000F0FD101F000464000FF
:1007A00041EB010111F4801F08BF013CF7D041EA81
:1007B000060195F0000F18BF704703F00046520085
:1007C00043EB030313F4801F08BF013DF7D043EA56
:1007D0000603704794EA0C0F0CEA135518BF95EA0C
:1007E0000C0F0CD050EA410618BF52EA4306D1D193
:1007F00081EA030101F000414FF0000070BD50EAB2
:10080000410606BF1046194652EA430619D094EA3B
:100810000C0F02D150EA013613D195EA0C0F05D125
:1008200052EA03361CBF104619460AD181EA030179
:1008300001F0004141F0FE4141F470014FF0000031
:1008400070BD41F0FE4141F4780170BD70B54FF0CC
:10085000FF0C4CF4E06C1CEA11541DBF1CEA13554C
:1008600094EA0C0F95EA0C0F00F0A7F8A4EB05042E
:1008700081EA030E52EA03354FEA013100F0888025
:100880004FEA03334FF0805545EA131343EA1263EE
:100890004FEA022245EA111545EA10654FEA0026A3
:1008A0000EF000419D4208BF964244F1FD0404F55C
:1008B000407402D25B084FEA3202B61A65EB0305B8
:1008C0005B084FEA32024FF480104FF4002CB6EB75
:1008D000020E75EB030E22BFB61A754640EA0C00F5
:1008E0005B084FEA3202B6EB020E75EB030E22BF35
:1008F000B61A754640EA5C005B084FEA3202B6EB76
:10090000020E75EB030E22BFB61A754640EA9C0034
:100910005B084FEA3202B6EB020E75EB030E22BF04
:10092000B61A754640EADC0055EA060E18D04FEAC2
:10093000051545EA16754FEA06164FEAC30343EA62
:1009400052734FEAC2025FEA1C1CC0D111F4801F2F
:100950000BD141EA00014FF000004FF0004CB6E728
:1009600011F4801F04BF01430020B4F1FD0C88BFC7
:10097000BCF5E06F3FF6AFAEB5EB030C04BFB6EBD2
:10098000020C5FEA500C50F1000041EB045170BDC5
:100990000EF0004E4EEA113114EB5C04C2BFD4EBF2
:1009A0000C0541EA045170BD41F480114FF0000E76
:1009B000013C90E645EA060E8DE60CEA135594EAF2
:1009C0000C0F08BF95EA0C0F3FF43BAF94EA0C0FF5
:1009D0000AD150EA01347FF434AF95EA0C0F7FF46A
:1009E00025AF104619462CE795EA0C0F06D152EABE
:1009F00003353FF4FDAE1046194622E750EA4106A2
:100A000018BF52EA43067FF4C5AE50EA41047FF4B2
:100A10000DAF52EA43057FF4EBAE12E74A0011D264
:100A200012F5001211D20DD56FF47873B3EB625248
:100A30000ED44FEAC12343F0004343EA505323FA54
:100A400002F070474FF00000704750EA013002D1C9
:100A50004FF0FF3070474FF00000704780B500AF97
:100A600001220121002000F011F9002300220121C0
:100A7000002000F07BF901220021002000F006F99F
:100A8000002300220021002000F070F90122002143
:100A9000002000F08DFA642000F0F4FC0022002118
:100AA000002000F085FA012000F0ECFC012200217A
:100AB000002000F07DFA642000F0E4FC0022002118
:100AC000002000F075FA642000F0DCFC0122002117
:100AD000002000F06DFA782000F0B2FC112000F048
:100AE00021F80A2000F0ACFC3A2000F01BF80520A9
:100AF00000F005F8292000F015F800BF80BD80B592
:100B000082B000AF0346FB7101220121002000F0FA
:100B10004FFAFB799BB2184600F01EFC00BF083765
:100B2000BD4680BD80B582B000AF0346FB71002298
:100B30000121002000F03CFAFB799BB2184600F03E
:100B40000BFC00BF0837BD4680BD80B584B000AF48
:100B500078602A20FFF7E6FF0020FFF7D0FF002093
:100B6000FFF7CDFF0020FFF7CAFF7F20FFF7C7FF89
:100B70002B20FFF7D7FF0020FFF7C1FF0020FFF772
:100B8000BEFF0020FFF7BBFF9F20FFF7B8FF2C2020
:100B9000FFF7C8FF0023FB8118E0FB895B007A6840
:100BA00013441B887B73FB895B007A6813441B88A2
:100BB0001B0A9BB23B733B7B1846FFF7A0FF7B7B76
:100BC0001846FFF79CFFFB890133FB81FB89B3F5D6
:100BD000A04FE2D300BF00BF1037BD4680BD00006C
:100BE00080B400AF114B00225A60104B00229A6073
:100BF0000E4B9B680D4A43F0010393600B4B9B68BF
:100C00000A4A23F002039360084B9B68074A23F4C7
:100C100000639360054B0022DA60044B00221A61E6
:100C200000BFBD465DF8047B704700BF0020014057
:100C300080B485B000AF0346FB71134B5B6B124A67
:100C400023F01F035363104B5A6BFB7903F01F0310
:100C50000D4913434B630C4B9B680B4A43F0804395
:100C6000936000BF084B1B685B0803F00103002B77
:100C7000F8D0054BDB6CFB81FB8918461437BD4669
:100C80005DF8047B704700BF0020014080B483B052
:100C900000AF0346FB710B46BB7113467B71FB79BA
:100CA000022B40D0022B57DC002B02D0012B1BD093
:100CB00052E0BB790C2B4ED82A4B1B68BA795200F4
:100CC000032101FA02F2D2431146264A0B40136077
:100CD000244B1B687979BA79520001FA02F2114665
:100CE000204A0B43136036E0BB79022B02D9BB7953
:100CF000052B17D91C4B1B68BA795200032101FA46
:100D000002F2D2431146184A0B401360164B1B687F
:100D10007979BA79520001FA02F21146124A0B436C
:100D2000136019E018E0104B1B68BA7952000321D8
:100D300001FA02F2D24311460B4A0B4013600A4BF0
:100D40001B687979BA79520001FA02F21146064A13
:100D50000B43136000E000BF00BF0C37BD465DF8D9
:100D6000047B7047000002400004024090B482B04F
:100D700000AF0446084611461A462346FB71034657
:100D8000BB710B467B7113463B71FB79022B6CD018
:100D9000022B00F39880002B02D0012B31D092E07F
:100DA000BB790C2B00F28E80494B5B68BA7901212C
:100DB00001FA02F2D2431146454A0B405360444BBC
:100DC0005B687979BA7901FA02F21146404A0B431D
:100DD00053603F4B9B68BA795200032101FA02F23B
:100DE000D24311463A4A0B409360394B9B6839799C
:100DF000BA79520001FA02F21146354A0B43936068
:100E000060E0BB79022B02D9BB79052B2CD9314B81
:100E10005B68BA79012101FA02F2D24311462D4AE8
:100E20000B4053602B4B5B687979BA7901FA02F277
:100E30001146284A0B435360264B9B68BA795200EF
:100E4000032101FA02F2D2431146224A0B40936079
:100E5000204B9B683979BA79520001FA02F21146A7
:100E60001C4A0B4393602EE02DE01B4B5B68BA7964
:100E7000012101FA02F2D2431146174A0B40536096
:100E8000154B5B687979BA7901FA02F21146124A78
:100E90000B435360104B9B68BA795200032101FA4F
:100EA00002F2D24311460C4A0B4093600A4B9B68F6
:100EB0003979BA79520001FA02F21146064A0B4317
:100EC000936000E000BF00BF0837BD4690BC70478C
:100ED00000000240000402400008024080B483B0D9
:100EE00000AF0346FB710B46BB7113467B71FB7968
:100EF000022B3CD0022B51DC002B02D0012B19D04D
:100F00004CE0BB790C2B48D8274B5B69BA7901219F
:100F100001FA02F2D2431146234A0B405361224B9D
:100F20005B697979BA7901FA02F211461E4A0B43DC
:100F3000536132E0BB79022B02D9BB79052B15D95D
:100F4000194B5B69BA79012101FA02F2D2431146C9
:100F5000154A0B405361144B5B697979BA7901FAF0
:100F600002F21146104A0B43536117E016E00F4B93
:100F70005B69BA79012101FA02F2D24311460B4AA8
:100F80000B405361094B5B697979BA7901FA02F236
:100F90001146064A0B43536100E000BF00BF0C3707
:100FA000BD465DF8047B7047000002400008024027
:100FB00080B483B000AF0346FB710B46BB71134690
:100FC0007B71FB79022B28D0022B33DC002B02D063
:100FD000012B0FD02EE0BB790C2B2AD87B79002B6C
:100FE00002D1BB791033BB71BB7901229A40144BFB
:100FF0009A611EE0BB79022B02D9BB79052B0BD974
:101000007B79002B02D1BB791033BB71BB790122F4
:101010009A400C4B9A610DE00CE07B79002B02D1D9
:10102000BB791033BB71BB7901229A40064B9A61A0
:1010300000E000BF00BF0C37BD465DF8047B704781
:1010400000000240000402400008024080B483B067
:1010500000AF0346FB710B46BB7113467B71FB79F6
:10106000022B00F08680022B00F3C180002B02D0FF
:10107000012B3ED0BBE0BB790C2B00F2B380BB79D7
:10108000072B17D85D4B1B6ABA7992000F2101FA22
:1010900002F2D2431146594A0B401362574B1B6A66
:1010A0007979BA79920001FA02F21146534A0B4358
:1010B000136297E0BB790F2B00F29480BB79083B59
:1010C000BB714E4B5B6ABA7992000F2101FA02F2B2
:1010D000D2431146494A0B405362484B5B6A7979C7
:1010E000BA79920001FA02F21146444A0B43536264
:1010F00078E0BB79022B02D9BB79052B38D9BB79B3
:10110000072B17D83E4B1B6ABA7992000F2101FAC0
:1011100002F2D24311463A4A0B401362384B1B6A23
:101120007979BA79920001FA02F21146344A0B43F6
:10113000136259E0BB790F2B56D8BB79083BBB71C2
:101140002F4B5B6ABA7992000F2101FA02F2D24367
:1011500011462B4A0B405362294B5B6A7979BA7965
:10116000920001FA02F21146254A0B4353623BE01A
:101170003AE0BB79072B17D8224B1B6ABA79920049
:101180000F2101FA02F2D24311461E4A0B401362AC
:101190001C4B1B6A7979BA79920001FA02F2114666
:1011A000184A0B43136221E0BB790F2B1ED8BB7981
:1011B000083BBB71134B5B6ABA7992000F2101FAAD
:1011C00002F2D24311460F4A0B4053620D4B5B6A49
:1011D0007979BA79920001FA02F21146094A0B4371
:1011E000536203E000BF02E000BF00E000BF00BFA9
:1011F0000C37BD465DF8047B704700BF000002401D
:10120000000402400008024080B400AF0E4B1B688F
:101210000D4A43F00103136000BF0B4B1B685B08D2
:1012200003F00103002BF8D0074B9B68064A23F01C
:1012300003039360044B044A9B68936000BFBD4660
:101240005DF8047B704700BF0038024080B483B073
:1012500000AF03460A46FB711346BB71FB79032BB3
:1012600036D801A252F823F0791200088F12000834
:10127000A5120008BB120008194B1B6BBA7901219B
:1012800001FA02F21146164A0B43136321E0144B94
:101290005B6BBA79012101FA02F21146104A0B4345
:1012A000536316E00E4B1B6CBA79012101FA02F26E
:1012B00011460B4A0B4313640BE0094B5B6CBA7984
:1012C000012101FA02F21146054A0B43536400E082
:1012D00000BF00BF0C37BD465DF8047B704700BF00
:1012E0000038024080B400AF1A4B1B68194A43F41F
:1012F00000731360174B1B68164A43F48073136026
:10130000144B1B68134A43F004031360114B1B6812
:10131000104A23F4004313600E4B1B680D4A23F060
:10132000800313600B4B1B680A4A43F002031360EF
:10133000084B1B68074A23F001031360054B1B6829
:10134000044A43F04003136000BFBD465DF8047BD0
:10135000704700BF0030014080B483B000AF034647
:10136000FB8000BF0C4B9B685B0803F00103002B64
:10137000F8D0094AFB88D36000BF074B9B6803F095
:101380000103002BF9D0044BDB689BB218460C37E5
:10139000BD465DF8047B70470030014080B400AF6B
:1013A000084B1B68074A23F004031360054B1B68B6
:1013B000044A23F00103136000BFBD465DF8047BBF
:1013C000704700BF10E000E080B483B000AF7860E9
:1013D000084A7B685360074B00229A60054B1B68E4
:1013E000044A43F00103136000BF0C37BD465DF8AB
:1013F000047B704710E000E080B483B000AF034688
:10140000FB71064B1A68FB795B00044913430B60C0
:1014100000BF0C37BD465DF8047B704710E000E06C
:1014200080B400AF054B1B681B0CDBB203F001035B
:10143000DBB21846BD465DF8047B704710E000E063
:1014400080B582B000AF78600020FFF7D5FF7B68E1
:101450004FF4FA6202FB03F31846FFF7B5FF00BF33
:10146000FFF7DEFF0346002BFAD0054B1B68044A4A
:1014700023F00103136000BF0837BD4680BD00BFE5
:1014800010E000E080B582B000AF78600020FFF788
:10149000B3FF7B685B001846FFF796FF00BFFFF7BE
:1014A000BFFF0346002BFAD0044B1B68034A23F00E
:1014B0000103136000BF0837BD4680BD10E000E0A7
:1014C00080B500AF084B1B68002B02D0064B1B6891
:1014D0009847064B1B78DBB2012B02D10020FFF7A7
:1014E0008BFF00BF80BD00BF6CA0002070A000205B
:1014F00080B400AF134AD36823F40043D360114B88
:1015000040F283629A600F4AD36823F48053D36019
:101510000C4AD36823F48063D3600A4AD36843F447
:101520000053D360074AD36843F00803D360054AE9
:10153000D36843F00403D36000BFBD465DF8047B6D
:10154000704700BF0010014080B483B000AF034675
:10155000FB7100BF074B1B68DB0903F00103002B85
:10156000F8D0044AFB79536000BF0C37BD465DF8E4
:10157000047B70470010014080B584B000AF7860F4
:101580000023FB7309E0FB7B7A6813441B78184641
:10159000FFF7DAFFFB7B0133FB73FB7B7A681344B5
:1015A0001B78002BEFD100BF00BF1037BD4680BDB8
:1015B00080B584B000AF0346FB80FB881846FEF779
:1015C000A1FF16A3D3E90023FFF716F802460B4646
:1015D000104619464FF000020F4BFFF70DF8024678
:1015E0000B46104619460AA3D3E90023FFF72EF94C
:1015F00002460B4610461946FFF710FA0346FB60F9
:10160000FB6818461037BD4680BD00BFAFF30080B1
:101610000000000000FEAF400000594066666666AC
:1016200066660A4080B588B000AFFFF7EDFD002187
:101630000020FFF70BFE0C210320FFF707FE04211B
:101640000320FFF703FE08210320FFF7FFFD02221E
:1016500005210020FFF71AFB052205210020FFF7D6
:10166000F5FC022207210020FFF710FB05220721CD
:101670000020FFF7EBFC022209210020FFF706FB08
:10168000072209210020FFF7E1FC02220A210020A5
:10169000FFF7FCFA07220A210020FFF7D7FC0322FC
:1016A00002210020FFF7F2FA012203210020FFF7B8
:1016B000EDFA0023002203210020FFF757FB01224F
:1016C00004210020FFF7E2FA002300220421002079
:1016D000FFF74CFB012206210020FFF7D7FA002379
:1016E000002206210020FFF741FBFFF757FEFFF71E
:1016F000F9FDFFF7B3F9FFF773FAFFF7F9FE354885
:10170000FFF723FA4FF47A70FFF79AFE0220FFF7F3
:101710008FFA0346FB83FB8B1846FFF749FFB8613E
:10172000BB691E2B15D82C48FFF70FFA01220321A5
:101730000020FFF7D3FB002204210020FFF7CEFB9F
:10174000002206210020FFF7C9FB2448FFF714FF01
:1017500030E0BB691E2B18D9BB69322B15D8204845
:10176000FFF7F3F9002203210020FFF7B7FB012266
:1017700004210020FFF7B2FB002206210020FFF722
:10178000ADFB1848FFF7F8FE14E01748FFF7DDF946
:10179000002203210020FFF7A1FB002204210020EA
:1017A000FFF79CFB012206210020FFF797FB0F4863
:1017B000FFF7E2FE3B1DBA690D49184600F07AF8C2
:1017C0003B1D1846FFF7D8FE4FF47A70FFF738FE3E
:1017D0009CE700BF0000002020220008FC21000838
:1017E000206201080422000820C200080C22000820
:1017F0001422000880B586B000AF7860144A154BFB
:10180000D31A7B617B693B61134B1B68002B02D1B0
:10181000114B124A1A60104B1A687B6813443A69DC
:101820009A4207D200F068F803460C221A604FF083
:10183000FF3309E0084B1B68FB60074B1A687B68A5
:101840001344054A1360FB6818461837BD4680BD2F
:10185000000001200004000074A00020C0A10020AE
:101860000D488546AFF300800C480D490D4A002312
:1018700002E0D458C4500433C4188C42F9D30A4A45
:101880000A4C002301E013600432A242FBD300F0B3
:1018900039F8FFF7C7FEFEE7000001200000002036
:1018A00050A000206402020850A00020C0A1002027
:1018B000FEE700000EB410B59DB01FAB029006907D
:1018C0006FF000410A48079104910A4953F8042B2C
:1018D0000591002402A9006801931B9400F08CF983
:1018E000029B1C701DB0BDE8104003B0704700BFE4
:1018F00000A000200802FFFF014B1868704700BFDE
:1019000000A0002070B50D4D0D4C641BA4100026E6
:10191000A64209D10B4D0C4C00F064FC641BA410D2
:101920000026A64205D170BD55F8043B9847013604
:10193000EEE755F8043B98470136F2E75C020208EF
:101940005C0202085C0202086002020870477047ED
:1019500038B50546002941D051F8043C0C1F002B36
:10196000B8BFE41800F0E0F81D4A136833B96360AB
:1019700014602846BDE8384000F0DCB8A34208D91E
:10198000206821188B4201BF19685B680918216023
:10199000EDE71A465B680BB1A342FAD911685018FB
:1019A000A0420BD120680144501883421160E0D15D
:1019B00018685B68536008441060DAE702D90C23AA
:1019C0002B60D6E7206821188B4204BF19685B683A
:1019D000636004BF091821605460CAE738BD00BFC6
:1019E000BCA1002070B50F4E0C463168054611B9F8
:1019F00000F0A4FB30602146284600F09FFB431C0A
:101A000003D14FF0FF34204670BDC41C24F0030402
:101A1000A042F8D0211A284600F090FB0130F2D104
:101A2000EFE700BFB8A100202DE9F843CD1C25F059
:101A3000030508350C2D38BF0C25002D064601DBAB
:101A4000A94204D90C2333600020BDE8F883DFF8F5
:101A5000D48000F069F8D8F800301C4644BB294611
:101A60003046FFF7BFFF431C044658D1D8F800406A
:101A70002746002F43D1002C4BD0236839463046EF
:101A800004EB030900F05AFB814542D121686D1A2D
:101A900029463046FFF7A6FF01303AD023682B4491
:101AA0002360D8F800305A6862BBC8F800700FE0B5
:101AB0002268521B20D40B2A17D96119A342256032
:101AC00018BF5960636808BFC8F8001062514B60C6
:101AD000304600F02FF804F10B00231D20F0070022
:101AE000C21A1CBF1B1AA350AFE76268A3420CBF07
:101AF000C8F800205A60EBE723466468AEE73C462E
:101B00007F68B6E71A465B68A342FBD100235360A7
:101B1000DEE70C233360304600F00CF894E70560F4
:101B2000D6E700BFBCA100200148FFF70FBF00BFF0
:101B3000B4A100200148FFF70ABF00BFB4A10020F4
:101B40002DE9F0478E681F46BE420B6882460C4660
:101B500090462DD8B1F90C2012F4906F26D065690B
:101B6000096905EB4505A3EB010905EBD5757B1C60
:101B70004B446D109D4238BF1D46530527D529465D
:101B8000FFF752FF064660B321694A4600F0E6FAC5
:101B9000A38923F4906343F08003A38126616561E8
:101BA0004E44A5EB09052660A5603E46BE4200D91D
:101BB0003E4620683246414600F0A6FAA3689B1BC9
:101BC000A3602368334423600020BDE8F0872A46E1
:101BD00000F0D2FA06460028E0D121695046FFF70E
:101BE000B7FE0C23CAF80030A38943F04003A38159
:101BF0004FF0FF30E9E700002DE9F04F98468B8960
:101C00001B069DB007460D46144610D50B6973B9E7
:101C10004021FFF709FF2860286130B90C233B60A1
:101C20004FF0FF301DB0BDE8F08F40236B61002303
:101C3000099320238DF82930CDF80C803023DFF86C
:101C40009C818DF82A304FF0010923469A4613F8FB
:101C5000012B0AB1252AF9D1BAEB040B0BD05B4654
:101C6000224629463846FFF76BFF013000F0A78077
:101C7000099A5A4409929AF80030002B00F09F808C
:101C800000234FF0FF32CDE905230AF1010A049346
:101C900007938DF853301A935446052214F8011B0C
:101CA0004E48FEF79DFA049AD8B9D00644BF2023C7
:101CB0008DF85330110744BF2B238DF853309AF819
:101CC00000302A2B15D0079A544600204FF00A0CFA
:101CD000214611F8013B303B092B4BD9B0B107929B
:101CE00014E0A0EB080309FA03F313430493A2469C
:101CF000D2E7039B191D1B680391002BBBBF5B42FE
:101D000042F0020207930793B8BF049223782E2B68
:101D10000AD163782A2B32D1039B1A1D1B680392C8
:101D200043EAE37302340593DFF8C0A0217803226D
:101D30005046FEF755FA38B1049BA0EB0A0040224A
:101D4000824013430134049314F8011B24488DF896
:101D500028100622FEF744FA002836D0214B1BBB80
:101D6000039B073323F0070308330393099B334492
:101D700009936AE70CFB02320C460120A8E7002316
:101D80000134059319464FF00A0C204610F8012B38
:101D9000303A092A03D9002BC6D00591C4E70CFBC1
:101DA000012104460123F0E703AB00932A460E4BC2
:101DB00004A93846AFF30080421C0646D6D1AB8951
:101DC0005B063FF52DAF09982CE703AB00932A463D
:101DD000054B04A9384600F079F8EDE72002020827
:101DE0002A02020800000000411B00082602020827
:101DF0002DE9F047164698468A680B69DDF8209071
:101E00009342B8BF1346336091F8432007460C460F
:101E10000AB1013333602368990642BF3368023345
:101E20003360256815F0060506D104F1190AE36848
:101E300032689B1AAB4226DC94F843302268003BA0
:101E400018BF012392062BD404F1430241463846C1
:101E5000C84701301ED02368226903F00603042B13
:101E600002BFE5683368ED1AA3680CBF25EAE57583
:101E700000259342C4BF9B1AED1800261A34B542C0
:101E80001AD1002008E00123524641463846C8478F
:101E9000013003D14FF0FF30BDE8F0870135C6E7D0
:101EA000E1185A1C302081F84300224494F8451070
:101EB00082F843100233C7E70123224641463846E1
:101EC000C8470130E6D00136D9E700002DE9FF47C9
:101ED0000F7E0C9E782F914680460C469A4601F163
:101EE000430207D8622F0AD8002F00F0D180582F64
:101EF00000F0B88004F1420684F842703AE0A7F19D
:101F00006303152BF6D801A151F823F0651F0008D3
:101F1000791F0008F51E0008F51E0008F51E0008D0
:101F2000F51E0008791F0008F51E0008F51E0008C0
:101F3000F51E0008F51E000877200008A31F000802
:101F400031200008F51E0008F51E00089920000841
:101F5000F51E0008A31F0008F51E0008F51E000866
:101F60003920000833681A1D1B68326004F14206EC
:101F700084F8423001239CE033682068191D3160E9
:101F8000060601D51D6803E04506FBD5B3F90050F0
:101F9000002D03DA2D236D4284F8433058480A237C
:101FA00011E021683368080653F8045B02D449063F
:101FB00048BFADB26F2F5248336014BF0A230823C5
:101FC000002184F843106668A660002E05DB2168B6
:101FD0002E4321F0040121604BD01646B5FBF3F1EE
:101FE00003FB1157C75D06F8017D2F46BB420D4626
:101FF000F4D9082B0BD12368DF0708D52369616862
:102000009942DEBF302306F8013C06F1FF36921BF1
:102010002261CDF800A04B4603AA21464046FFF7B7
:10202000E7FE01304AD14FF0FF3004B0BDE8F08741
:10203000236843F0200323603248782784F84570F2
:10204000236831681F0651F8045B02D45F0648BF5D
:10205000ADB23160D90744BF43F0200323601DB106
:102060001023ADE72648E9E7236823F02003236027
:10207000F6E71646BDE7336825686169181D3060CC
:102080002E061B6801D5196002E06806FBD5198091
:10209000002323611646BCE733681A1D32601E68B0
:1020A000626800213046FEF79BF808B1801B606033
:1020B00063682361002384F84330AAE7236932462A
:1020C00049464046D0470130ADD023689B0713D422
:1020D000E068039B9842B8BF1846A6E70123324642
:1020E00049464046D04701309DD00135E368039909
:1020F0005B1AAB42F2DCEBE7002504F11906F5E7C9
:102100003102020842020208884210B501EB0204C3
:1021100002D98442234607D8431EA14208D011F8B1
:10212000012B03F8012FF8E7024401468A4200D14F
:1021300010BD13F8014D02F8014DF7E738B5064D13
:102140000023044608462B60FFF754FB431C02D1D2
:102150002B6803B1236038BDB0A100200A4491422E
:1021600000F1FF3300D1704710B511F8014B03F8AF
:10217000014F9142F9D110BD2DE9F04107461446B7
:102180000D4621B9BDE8F0411146FFF74DBC2AB913
:10219000FFF7DEFB25462846BDE8F08100F01AF87F
:1021A0008442064602D8B4EB500FF4D82146384694
:1021B000FFF73AFC804608B94546ECE7B4422246B0
:1021C000294628BF3246FFF7C9FF29463846FFF7A0
:1021D000BFFBF1E751F8043C181F002BBCBF0B58A4
:1021E000C0187047F8B500BFF8BC08BC9E467047E1
:0C21F000F8B500BFF8BC08BC9E46704764
:1021FC00436F6C640D0A00005761726D0D0A00008C
:10220C00486F740D0A00000054656D703D25640D17
:10221C000A00000020002000200020000000000028
:10222C0000000000000000000000000000000000A2
:10223C000000000000000000000000002000200052
:10224C002000200020002000000000000000000002
:10225C000000000000000000000000000000000072
:10226C000000000000000000000000002000200022
:10227C002000200020002000200020002000200052
:10228C002000200020002000200020002000200042
:10229C002000200020002000200020002000200032
:1022AC002000200000000000000020002000200082
:1022BC002000200020002000200000000000000072
:1022CC000000000020002000200020002000200042
:1022DC002000200020002000000000000000200052
:1022EC002000000020002000200020002000000022
:1022FC0000000000000000000000000000000000D2
:10230C0020002000000020002000200020002000E1
:10231C0020002000200020002000200000000000F1
:10232C0000000000000000000000000000000000A1
:10233C000000000000000000000000002000200051
:10234C002000200020000000000000000000000021
:10235C002000200000000000000000000000000031
:10236C000000000000000000000000000000200041
:10237C002000200020002000200020002000200051
:10238C002000200020002000200020002000200041
:10239C002000200020002000200020002000200031
:1023AC002000200000000000000020002000200081
:1023BC002000200020002000200000000000000071
:1023CC000000200020002000200020002000200021
:1023DC002000200020002000000000000000200051
:1023EC002000000020002000200020002000000021
:1023FC0000000000000000000000000000000000D1
:10240C0020002000000020002000200020002000E0
:10241C0020002000200020002000200000000000F0
:10242C0000000000000000000000000000000000A0
:10243C000000000000000000000000002000200050
:10244C0020002000000000000000200020002000E0
:10245C002000200000000000000000000000000030
:10246C000000000000000000000000000000000060
:10247C002000200020002000200020002000200050
:10248C002000200020002000200020002000200040
:10249C002000200020002000200020002000200030
:1024AC002000200000000000200020002000200060
:1024BC002000200020002000200000000000000070
:1024CC000000200020002000200020002000200020
:1024DC002000200020002000000000000000200050
:1024EC002000000020002000200020002000000020
:1024FC0000000000000000000000000000000000D0
:10250C00000000000000000020002000200020003F
:10251C0020002000200020002000200020000000CF
:10252C00000000000000000000000000000000009F
:10253C0000000000200020000000200020002000EF
:10254C0020002000000000002000200020002000BF
:10255C00200020000000000000000000000000002F
:10256C00000000000000000000000000000000005F
:10257C00200020002000200020000000000020008F
:10258C00200020002000200020002000200020003F
:10259C00200020002000200020002000200020002F
:1025AC00200020000000200020002000200020003F
:1025BC00200020002000200020000000000000006F
:1025CC00000020002000200020002000200020001F
:1025DC00200020002000200000000000000020004F
:1025EC00200000000000000000002000000000009F
:1025FC00000000000000000000002000200020006F
:10260C00000000000000000020002000200020003E
:10261C0020002000200020002000200020000000CE
:10262C00000000000000000000000000000000009E
:10263C0000000000200020002000200020002000CE
:10264C0020000000000020002000200020002000BE
:10265C0020000000200020002000000000000000EE
:10266C00000000000000000000000000000000005E
:10267C00200020002000200020002000200020004E
:10268C00200020002000200020002000200020003E
:10269C00200020002000200020002000200020002E
:1026AC00200020002000200020002000200020001E
:1026BC00200020002000200020000000000000006E
:1026CC0020002000200020002000200020002000FE
:1026DC00200020002000200000000000000020004E
:1026EC0020000000000000000000000000000000BE
:1026FC00000000000000000000002000200020006E
:10270C00000000000000000020002000200020003D
:10271C0020002000200020002000200020000000CD
:10272C00000000000000000000000000000000009D
:10273C0000000000200020002000200020002000CD
:10274C00200000002000200020002000200020009D
:10275C0000000000200020002000200000000000ED
:10276C00000000000000000000000000000000005D
:10277C00200020002000200020002000200020004D
:10278C00200020002000200020002000200020003D
:10279C00200020002000200020002000200020002D
:1027AC00200020002000200020002000200020001D
:1027BC00200020002000200020000000000000006D
:1027CC0020002000200020002000200020002000FD
:1027DC00200020002000200000000000000020004D
:1027EC0020000000000000000000000000000000BD
:1027FC00000000000000000000002000200000008D
:10280C00000000000000000020002000200020003C
:10281C0020002000200020002000200020002000AC
:10282C0000000000200020002000200020000000FC
:10283C0000000000200020002000200020002000CC
:10284C00200020002000200020002000200020007C
:10285C00000000000000200020002000000000000C
:10286C00000000000000000000000000200020001C
:10287C00200020002000200020002000200020004C
:10288C00200020002000200020002000200020003C
:10289C00200020002000200020002000200020002C
:1028AC00200020002000200020002000200020001C
:1028BC00200020002000200020000000000000006C
:1028CC0020002000200020002000200020002000FC
:1028DC00200020002000200000000000000020004C
:1028EC0020000000000000000000000000000000BC
:1028FC00000000002000200000000000000000008C
:10290C00000020000000000020002000200020001B
:10291C0020002000200020002000200020002000AB
:10292C0000000000200020002000200020002000DB
:10293C00000000002000000000002000200020000B
:10294C00200020002000200020002000200000009B
:10295C0000000000000020002000200020000000EB
:10296C0000000000000020002000200020002000BB
:10297C00200020002000200020002000200020004B
:10298C00200020002000200020002000200020003B
:10299C00200020002000200020002000200020002B
:1029AC00200020002000200020002000200020001B
:1029BC00200020002000200020000000000000006B
:1029CC0020002000200020002000200020002000FB
:1029DC00200020002000200000000000000020004B
:1029EC0020000000000000000000000000000000BB
:1029FC00000000002000200000000000000000008B
:102A0C0020002000000000002000200020002000FA
:102A1C0020002000200020002000200020002000AA
:102A2C0020002000000020002000200020002000BA
:102A3C0020000000000020002000200020002000CA
:102A4C00200000002000200020002000200020009A
:102A5C0020000000200020002000200000000000CA
:102A6C00000000002000200020002000200020009A
:102A7C00200020002000200020002000200020004A
:102A8C00200020002000200020002000200020003A
:102A9C00200020002000200020002000200020002A
:102AAC00200020002000200020002000200020001A
:102ABC00200020002000200020002000200020000A
:102ACC00000000002000200020002000200020003A
:102ADC00000000002000200020002000000000006A
:102AEC0000000000000000000000000000000000DA
:102AFC00000000002000200020002000200020000A
:102B0C002000200000000000200020002000000019
:102B1C0020002000200020002000200020002000A9
:102B2C002000200000000000000020002000000019
:102B3C0000000000000020002000200020002000E9
:102B4C002000000020002000200020002000200099
:102B5C002000200020002000200020002000000089
:102B6C0000000000200020002000200000000000D9
:102B7C002000200020002000200020002000200049
:102B8C002000200020002000200020002000200039
:102B9C002000200020002000200020002000200029
:102BAC002000200020002000200020002000200019
:102BBC002000200020002000200020002000200009
:102BCC002000000020002000200020002000200019
:102BDC002000200020002000200020002000000009
:102BEC000000000020002000200020002000200019
:102BFC002000200020002000000000000000000049
:102C0C0020002000000020002000200020002000D8
:102C1C0020002000200020002000200020002000A8
:102C2C002000200000000000000000000000000058
:102C3C0000000000000020002000200020002000E8
:102C4C0000000000200020002000200020002000B8
:102C5C0020002000000000002000200020000000C8
:102C6C000000000000002000200000000000000018
:102C7C000000200020002000200020002000200068
:102C8C002000200020002000200020002000200038
:102C9C002000200020002000200020002000200028
:102CAC002000200020002000200020002000200018
:102CBC002000200020002000200020002000200008
:102CCC0020002000200020002000200020002000F8
:102CDC0020002000200020002000200020002000E8
:102CEC000000000020002000200020002000200018
:102CFC002000000020002000000000000000000068
:102D0C0020002000000020002000200020000000F7
:102D1C0000002000200020002000200020002000C7
:102D2C002000200000000000000000000000000057
:102D3C0000000000000020002000200020002000E7
:102D4C0000000000200020002000200020002000B7
:102D5C0020002000000000002000200020000000C7
:102D6C0000000000000020002000200000000000F7
:102D7C002000200020002000200020002000200047
:102D8C002000200020002000200020002000200037
:102D9C002000200020002000200020002000200027
:102DAC002000200020002000200020002000200017
:102DBC002000200020002000200020002000200007
:102DCC0020002000200020002000200020002000F7
:102DDC0020002000200020002000200020002000E7
:102DEC0020002000200020002000200020000000F7
:102DFC0000000000200000000000000000000000A7
:102E0C000000200000000000000000000000000096
:102E1C0000000000200020002000200020002000E6
:102E2C002000200000000000000020002000000016
:102E3C0000000000200020002000200020002000C6
:102E4C0000000000200020002000200020002000B6
:102E5C0020002000000000002000200020000000C6
:102E6C000000000020002000200020002000200096
:102E7C002000200020002000200020002000200046
:102E8C002000200020002000200020002000200036
:102E9C002000200020002000200020002000200026
:102EAC002000200020002000200020002000200016
:102EBC002000200020002000200020002000200006
:102ECC002000200000002000200020002000200016
:102EDC0020002000200020002000200020002000E6
:102EEC002000200020002000200000000000000036
:102EFC0000000000000000000000000000000000C6
:102F0C0000000000000000000000000000000000B5
:102F1C0000000000200020002000200020002000E5
:102F2C0020002000000000002000200020002000D5
:102F3C0000000000200020002000200020002000C5
:102F4C0000000000200020002000200020002000B5
:102F5C0020002000000000002000200020002000A5
:102F6C000000000020002000200020002000200095
:102F7C002000200020002000200020002000200045
:102F8C002000200020002000200020002000200035
:102F9C002000200020002000200020002000200025
:102FAC002000200020002000200020002000200015
:102FBC002000200020002000200020002000200005
:102FCC0020002000200020002000200020002000F5
:102FDC0020002000200020002000200020002000E5
:102FEC002000200020000000000000000000000075
:102FFC000000000000000000200020002000200045
:10300C000000000000000000200020000000000074
:10301C0000002000200020002000200020002000C4
:10302C0020002000000000002000200020002000D4
:10303C0000000000200020002000200020002000C4
:10304C002000000020002000200020002000200094
:10305C002000200020002000200020002000200064
:10306C002000200020002000200020000000000094
:10307C002000200020002000200020002000200044
:10308C002000200020002000200020002000200034
:10309C002000200020002000200020002000200024
:1030AC002000200020002000200020002000200014
:1030BC002000200000002000200020002000200024
:1030CC002000200020002000200020000000000034
:1030DC000000000020002000200020002000200024
:1030EC002000200000000000000000000000000094
:1030FC000000000000000000200020002000200044
:10310C000000000000000000200020002000200033
:10311C0020002000200020002000200020002000A3
:10312C002000200000000000000020002000000013
:10313C0000000000200020002000200020002000C3
:10314C0020002000000000002000200020002000B3
:10315C002000200020002000200020002000200063
:10316C0020002000000020002000000000000000D3
:10317C000000200020002000200020002000200063
:10318C002000200020002000200020002000200033
:10319C002000200020002000200020002000200023
:1031AC002000200020002000200020002000200013
:1031BC002000200000000000200020002000200043
:1031CC002000200020002000200020000000000033
:1031DC000000000020002000200020002000200023
:1031EC0020002000200020002000200020002000D3
:1031FC002000200000000000200020002000200003
:10320C0000000000000000000000000000000000B2
:10321C0020002000200020002000200020002000A2
:10322C002000200020002000200020002000200092
:10323C002000200020002000200020002000200082
:10324C002000200020002000200020002000200072
:10325C0020002000220000002000200001000000BF
:10326C0020002000210801080008001000080108B7
:10327C000110000041000000000000082008200898
:10328C000000200040000000010021000000200090
:10329C002000200001000000210040002000000060
:1032AC000008000800080008200820000000400862
:1032BC0020100010000020002000200040082000FA
:1032CC0000004000200040004000000020002000D2
:1032DC0000002108200020002000200020002000F9
:1032EC002000200020002000200020000000000012
:1032FC000000000000000000000020002000200062
:10330C0020002000000000002000200020002000F1
:10331C0020000000200020002000200020002000C1
:10332C002000200020002000200020002000200091
:10333C0020000000200020002000200020002000A1
:10334C002000200020002000200020002000200071
:10335C002000200000000000400820000000400079
:10336C002000200021080000401000080008000880
:10337C002008200800004000200820080008000059
:10338C004008000000002000000021000100200087
:10339C0020002000000040002000200040004008D9
:1033AC000000000800082008000020004108000070
:1033BC000008011040080000200840080000200010
:1033CC002000000020000000000040004008200009
:1033DC000000000020002000200020002000200021
:1033EC0020002000200020002000200020002000D1
:1033FC0020002000000020002000200020002000E1
:10340C0020002000000020002000200020002000D0
:10341C0020002000200020002000200020002000A0
:10342C002000200020002000200020002000200090
:10343C0000000000200020002000200020002000C0
:10344C002000200020002000200020002000200070
:10345C002000200040082000200020002000200038
:10346C002000400020002000000040082000200028
:10347C002000200040002000000021080000000077
:10348C000000400840004008000000000000200040
:10349C000000000000004000200020004000400020
:1034AC00000000000000200041000000200022006D
:1034BC000100020800006110000000004008200814
:1034CC0000002100210841084008200000000000F5
:1034DC0040080000200020002000200020002000D8
:1034EC0020002000200020002000200020002000D0
:1034FC0020002000200020002000200020002000C0
:10350C00200020002000200000000000000020000F
:10351C00200020002000200020002000200020009F
:10352C00200020002000200020002000200020008F
:10353C0000000000200020002000200020002000BF
:10354C00200020002000200020002000200020006F
:10355C002000200000002008400800004108400026
:10356C0060082000410000004000200020004100C5
:10357C0061002000400040002008000022082108C3
:10358C00410820002000200020004008000000001E
:10359C000000410820084008400061086108200034
:1035AC0000002008200020002000600040000000E7
:1035BC00410801000008000800084008410800000C
:1035CC00000001000000010001002000200020008C
:1035DC0040082000200020002000200020002000B7
:1035EC0020002000200020002000200020002000CF
:1035FC0020002000200020002000200020002000BF
:10360C0020002000200020002000200020002000AE
:10361C00200020002000200020002000200020009E
:10362C0020002000200020002000000000000000EE
:10363C0000000000200020002000200020002000BE
:10364C00200020002000200020002000200020006E
:10365C0020002000220800000000000021080000CB
:10366C0040080000000082100000400040000000F4
:10367C00000040002000400800000000220800006C
:10368C002008000000002000200000004108410834
:10369C00000000000008000800000000000000000E
:1036AC00400800004008000040002000200060009E
:1036BC00200000080008200800000000000000089E
:1036CC002008000021080108010001004108200029
:1036DC0000004000200020002000200020002000DE
:1036EC0020002000200020002000200020000000EE
:1036FC00000000000000000000002000200020005E
:10370C0020002000000000002000200020002000ED
:10371C0020000000200020002000200020002000BD
:10372C0020002000200020002000000000000000ED
:10373C00000020002000200020002000200020009D
:10374C00200020002000200020002000200020006D
:10375C002000200000002008400861080000A1188B
:10376C00296B0D842229000801212963CC7B4B6B2A
:10377C000542200000004008200021000000E3204A
:10378C00A95AE962A110200060080000200000087E
:10379C00200880100652AC832E8C2E8C6B736331F8
:1037AC0000080008000840084100400040002000CC
:1037BC002008C0206652CB838E9C8E9C4A73212994
:1037CC000008000000082108220801000000200069
:1037DC0000004008200020002000200020002000D5
:1037EC00200020002000200020000000000000002D
:1037FC00000000000000000000000000200020007D
:10380C0020002000000000002000200020002000EC
:10381C0020000000200020002000200020002000BC
:10382C00200020002000200020002000200020008C
:10383C0000000000200020002000200020002000BC
:10384C00200020002000200020002000200020006C
:10385C002000200000004008200000002008F0A4F8
:10386C00B9FF78FF14D6086B37EF98F778F779FF24
:10387C0078FFAFC52231000000000000601073B566
:10388C009BFFBCFF94B520000000821000080000D4
:10389C00096B76D679FF38FF58FF99FF58F799FFD7
:1038AC00B3C563390008010800004108000080100E
:1038BC004D94B5E678F799FF78F778F758F738EF25
:1038CC0051B5833920080000210801080100610866
:1038DC0020002000200020002000200020002000DC
:1038EC0020002000200020002000200020002000CC
:1038FC0020002000000000002000200020002000FC
:10390C0020002000000000002000200020002000EB
:10391C0020002000200020002000000000002000DB
:10392C00200020002000200020002000200020008B
:10393C0000000000200020002000200020002000BB
:10394C00200020002000200020002000200020006B
:10395C00200020002008000000004008000051B5A5
:10396C0057F7F6F6F6F659FF58FF57FF78FFF7F6BC
:10397C00F5F655FFB8E62229200000008010B7E6C6
:10398C00F7EE38F797D620082100000000086B7B73
:10399C0079FF77F7D7F659FF58FF78FF57F716EFEF
:1039AC0058FF19F70652000862180000232935D673
:1039BC0098FF35FF36EF78F777F798FF36EF16EF6D
:1039CC0098FF38F7A65A00080000210801002100D2
:1039DC0000004000200020002000200020002000DB
:1039EC0020002000200020002000200020002000CB
:1039FC0020002000200020002000200020002000BB
:103A0C00200020002000200000000000000020000A
:103A1C00200020002000200020002000200020009A
:103A2C0020002000000000002000200020002000CA
:103A3C00200000002000200020002000200020009A
:103A4C0020002000000000002000200020002000AA
:103A5C002000200001080000000020000000F1A45C
:103A6C0079FFF6F6F8FEB7EE2D94455AA76215DEEF
:103A7C0037FFD4FE9AFFF1AC40080000600895DED9
:103A8C0037F758FF56D6200800002008E64979FF82
:103A9C0036F715EF1BFFF2B48762E76A91BD78FF2A
:103AAC00F5EE38FFD8EEA1280008401015CEB9FF6E
:103ABC00B3EE74FF38EF30AD2B8C50B537EF56F7B3
:103ACC00F4E677F757F7254A000000082108200094
:103ADC0020002000200020002000200020002000DA
:103AEC00200020000000000020002000200020000A
:103AFC00200020002000200000000000000020001A
:103B0C0020002000200020002000200020002000A9
:103B1C002000200020002000200020002000200099
:103B2C000000000000000000200020002000200009
:103B3C0000000000200020002000200020002000B9
:103B4C0020002000000000002000200020002000A9
:103B5C002000200001080000200020000000D0A45C
:103B6C0079FFF6F639FFE551000800080008C12876
:103B7C0097EEF6FED6F6BBFF43292000801034D614
:103B8C0016F737FF54D6801020000000B4C558FF3C
:103B9C0015F797FFAF8B00082008000040082FADE9
:103BAC0077FF16F778FF2D940008C5419CFF18EF9E
:103BBC0078FF31DE6331000800080008613974DEDB
:103BCC0056F7F5EE77F713CE2010000821082000E9
:103BDC0020002000200020002000200020002000D9
:103BEC002000200000000000200000000000000069
:103BFC002000200020002000200000000000000019
:103C0C0020002000200020002000200020002000A8
:103C1C0020002000200020002000200000000000D8
:103C2C000000000000000000200020002000000028
:103C3C0000000000200020002000200020002000B8
:103C4C000000000000000000200020000000000028
:103C5C000000200000082000400040000000AFA43D
:103C6C0078FF16F7F7F6C020000060004000000057
:103C7C002E9478FFB4F699FF8B7300000000D3CD1F
:103C8C0057FF36FF54DE60100000423139F717FF42
:103C9C0036FF32DE000820086008801000008131F9
:103CAC0077F735F798FFD2C500002000EF8379DE57
:103CBC0054BDA12800002108210800080008C028D4
:103CCC00D6E677FF36F7DAFF875A0008200800009F
:103CDC0040002000200020002000200020002000B8
:103CEC002000200000000000000000000000000088
:103CFC0020002000200020002000200000000000F8
:103D0C000000000000000000000000002000200067
:103D1C002000200020002000200020002000200097
:103D2C002000200020002000200020002000200087
:103D3C002000200020002000200020002000000097
:103D4C0000002000000020002000200020000000C7
:103D5C000000000000082000400040000000CFA43C
:103D6C0077FF16F738F701292000400040000000CB
:103D7C00096399FFD3FE78FF2E8C20000000D3CD71
:103D8C0037FF36FF74DE80102000464A59FFD6F606
:103D9C0077FF8BA400006008000000006008C018CA
:103DAC0016E756F776F794D660080000000042102C
:103DBC000100000842080100220801084210000816
:103DCC006D9C98FFF5EE57F710AD00080008000049
:103DDC0020002000200020002000200020002000D7
:103DEC002000200020002000000000000000000047
:103DFC0020002000200020002000200020000000D7
:103E0C000000000000000000000020002000200046
:103E1C002000200020002000200020002000200096
:103E2C0020002000200020000000200020002000A6
:103E3C0020002000200020002000000000000000D6
:103E4C002000200020002000200020002000200066
:103E5C002000200000080000200020000000D0A45A
:103E6C0078FFF6F6B6EE012120006000610000003C
:103E7C004B7379FFD3FE78FFCD7B40002000F4CD4F
:103E8C0016FF16FF74DE80102000675279FFD6F6FD
:103E9C0077FFABAC0000200041082100000001219D
:103EAC0037EF56F797FF32C6200020004100010083
:103EBC000100421000002200020002002210000843
:103ECC00A76299FF15EF98FFD3C5000020084008A2
:103EDC0000002000200020002000200020002000F6
:103EEC002000200000002000200020002000000006
:103EFC002000200000000000000020002000200016
:103F0C0020002000000000002000200020002000E5
:103F1C0020002000000000002000200020002000D5
:103F2C002000200000000000000000000000200025
:103F3C0020002000200020000000000000000000F5
:103F4C002000200020002000200020002000200065
:103F5C002000200001080000200021000000D0A457
:103F6C0078FFD6F67AFF022920006000200020009E
:103F7C0093BD58FFD4FE38FF884A20000000D3CDF3
:103F8C0057FF36FF75DE4008000084317AFF17FFBB
:103F9C0036FF52DE200800002108420800080A6B98
:103FAC0079FFF5EE57FF0FAD2000000061082000EF
:103FBC000000200040002000010002002210000838
:103FCC004652B9FF16EF98FF34CE000000004008AF
:103FDC0000004000200020002000200020002000D5
:103FEC0020002000000020002000200020002000E5
:103FFC000000200000000000000000000000200075
:10400C0020002000000000002000200020002000E4
:10401C0020002000000000002000200020002000D4
:10402C0020002000200020002000000000000000E4
:10403C000000000000000000200020000000000034
:10404C002000200020002000200020002000200064
:10405C002000200001080000200021000000D0AC4E
:10406C0077FFD5FEF6FE52BDC01820000000AC7BD9
:10407C0018FF15FF16FF76E6810820002000F3CD0F
:10408C0015FF57FF55DE811021000000F5CD57FFBD
:10409C00F5F6B6FF2D8C000800080000074A1AF749
:1040AC0039FFD6F699FFA7620000610800000000F6
:1040BC00A010000060004000200021080000000853
:1040CC00297378FF15EF57F7D3C5000800002000BF
:1040DC0020002000200020002000200020002000D4
:1040EC002000200020002000200020000000000004
:1040FC000000200020000000000000000000000074
:10410C002000200000000000000000002000200023
:10411C002000200020002000200020002000200093
:10412C0020002000200020002000200020000000A3
:10413C000000000000000000200020002000000013
:10414C0000000000200020002000200020000000C3
:10415C002000200001002000400040000000CFACF7
:10416C0076FFF3FE15FF57FF95DEEE9C34C658F72D
:10417C00F5FEF2FE58FF876200006100200053D666
:10418C0035FF36FF56DE410801002108E54999FF4D
:10419C0035FF13F798FF13CEF0AC73BD3AFF39FF20
:1041AC00B6EE99FF72CD001020080100420000000D
:1041BC00000040008000400080080000210800083A
:1041CC000D8CB9FFF5EED9FF6D9C0008200800009E
:1041DC0020000000200020002000200020002000F3
:1041EC002000200020002000000000000000000043
:1041FC000000200020002000000000000000000053
:10420C000000200000000000000000000000200062
:10421C0020002000200020000000000020002000D2
:10422C002000200000000000000000002000200002
:10423C000000000000000000000000000000000072
:10424C0000000000200020002000200000000000E2
:10425C00000020004108000002080108000811AD10
:10426C0077FF14EF13EF97FFB9FF7AFF59FF38EF81
:10427C0098F7B7FFEF730000210800080008F3CD92
:10428C0057F756F754DE4018000802100008A95AD8
:10429C0078F798F734FF75FF75FF76FF15F778FF01
:1042AC009AFFD4C5A11820000100210021080008A4
:1042BC000008000822000100010041080000201045
:1042CC0033D678FF17EFBBFFA96200082108000066
:1042DC0040080000200020002000200020000000EA
:1042EC0000000000000000000000000000000000C2
:1042FC002000200020000000000000000000000052
:10430C000000000000000000200020002000200021
:10431C0020002000200020000000000000002000F1
:10432C002000200000000000000000002000200001
:10433C000000000000000000000000000000000071
:10434C0000000000200020002000200000000000E1
:10435C002000200000002000000042100008AFA444
:10436C0098FF55F755F7467350BD19F71AEFF8E655
:10437C00F3C584522000210000000000000834D650
:10438C0057F777FFB6E6201000000108010800007F
:10439C0062292FA5F6EE37F758FFB9FF58F7D3C5AA
:1043AC004A7340082000000041080000685257D6AC
:1043BC0097DEE54900006108200800080008E76A5C
:1043CC0078FF16EF17F7B7E68120000021080000F0
:1043DC004000400020002000200020002000200091
:1043EC0000000000000000000000000000000000C1
:1043FC002000200000000000000000000000000071
:10440C000000000000000000200020002000200020
:10441C002000200020002000000000000000000010
:10442C000000000020000000000000002000200020
:10443C000000000000000000000000000000000070
:10444C0000000000200020002000200000000000E0
:10445C002000200020006008000000080008AFA425
:10446C00B9FF15EF56F7C0282010A1202431801871
:10447C00000000000000610800000008200834CE95
:10448C0077F757F754D6401021080200010041007D
:10449C0020002000A118C539274A0642433140109C
:1044AC0020000000200040000000801019E79AFF57
:1044BC0058FFF6EE8431000020080008655217EF13
:1044CC0037F717F7DBFFAB83000800082108200043
:1044DC0000002000200020002000200020002000F0
:1044EC000000000020002000200020000000000040
:1044FC000000000000000000200000000000000090
:10450C00000000000000000020002000200000003F
:10451C00200020002000200000000000000000000F
:10452C00000000002000200000000000000000003F
:10453C00000000000000000000000000000000006F
:10454C0000000000000020002000200020002000BF
:10455C002000200040000000200840080008CF9CEC
:10456C0078F737F758F721310008000800080008E1
:10457C00200820084008000000080008201055D62C
:10458C0057F777F775D64008000042080100000085
:10459C008108200001000100000000002000000044
:1045AC00200040080000400020000000D2BD57F75A
:1045BC0015EF76FF17EF2C8CA97B4FB537F778FFEB
:1045CC00D6E69AFF31B52010000820080000200024
:1045DC0020004000200020002000200020002000AF
:1045EC00000000002000200020002000000000003F
:1045FC00000000000000000020002000000000006F
:10460C00000000000000000020002000000000005E
:10461C00200020002000200000000000000000000E
:10462C00000000002000000000000000000000005E
:10463C00000000000000000000000000000000006E
:10464C0000000000000020002000200020002000BE
:10465C00200020004000400020002008000011A590
:10466C009AFF17EF38EF63390008010801080108B9
:10467C000000200800004008401020082008B7E681
:10468C0057F737EFD6DE601020082108210800000C
:10469C0000004008420821000000200020082008EB
:1046AC002008000061080000600820000029D5E601
:1046BC0097FF15F737F7B9FF77F7B8FF77F716EFCE
:1046CC00BAFF93BDA12000000008400800002000A4
:1046DC0020002000200020002000200020002000CE
:1046EC00200000002000200020000000000000003E
:1046FC00000000000000000020002000000000006E
:10470C00000020000000000020002000000000003D
:10471C0020002000200020002000200020000000AD
:10472C00000000000000000000000000000000007D
:10473C00000000000000000000000000000000006D
:10474C00000000002000200020002000200020009D
:10475C0020002000000040084008000020082E8C9B
:10476C00DCFF7AF739EFC1200000010802082108AC
:10477C00000000004008000000000000000832ADFE
:10478C00BAFFDAFF30AD0000000800000008000896
:10479C000010000800000000400840082008200815
:1047AC004008000000002008000000080000E02085
:1047BC0050B599FF79FF99FF78FF78FF58F7B6DE6F
:1047CC00ED8B20100000611020082000200040001C
:1047DC0020002000200020002000200020002000CD
:1047EC00200000000000000000002000200000005D
:1047FC00000000000000000020002000000000006D
:10480C00000020000000200020000000000000003C
:10481C00200020002000200020002000200020008C
:10482C00000000000000000000000000000000007C
:10483C0000000000200020002000200020002000AC
:10484C00200020002000200020002000200020005C
:10485C002000200020000000200800000000611053
:10486C006B732E8C064A00002108210800002000E2
:10487C00200040004000000040084110000081185A
:10488C0067526652601000006010000800080008B3
:10489C00201000082000200020080000000020004C
:1048AC000000000001080100010820080008200891
:1048BC00000822310A730E946E9C2D94A762C020BE
:1048CC000000000021080000000000002000200073
:1048DC0020002000200020002000200020002000CC
:1048EC00200000000000000020002000200020001C
:1048FC0000000000200020002000200020002000EC
:10490C0020002000200020002000000000000000FB
:10491C00200020002000200020002000200020008B
:10492C0000000000000000002000200020002000FB
:10493C0000000000200020002000200020002000AB
:10494C00200020002000200020002000200000007B
:10495C0020002000200020000100210001000000A8
:10496C000000000000004008000000002000400093
:10497C00000040002000600800000000210800003A
:10498C00000000002000400000002000210000007A
:10499C000000200840004000400020004000400083
:1049AC000000210001000100210821080000000086
:1049BC00400800000008000800080000000000008B
:1049CC002108210021000000000040080000000028
:1049DC0020000000200020002000200020002000EB
:1049EC0020002000200020002000200020002000BB
:1049FC00200000002000200000000000200020000B
:104A0C0020002000200020002000000000000000FA
:104A1C00200020000000000000000000000000004A
:104A2C00000000000000000000000000000000007A
:104A3C0000000000000000002000200020002000EA
:104A4C00200020002000200020002000200020005A
:104A5C00200020000100210021000100210020087D
:104A6C002008200840082000000020002000200022
:104A7C00200020002000400020000100010022083E
:104A8C00210821004100200000000000010000006E
:104A9C00000000002000200020002000200020004A
:104AAC0021002100010042080100210841080000FA
:104ABC000000400802082208410840084008200075
:104ACC002000010001002100200020002000000037
:104ADC00000000002000200020002000200020000A
:104AEC0020002000200020002000200020002000BA
:104AFC0020002000200020002000200020002000AA
:104B0C002000200020002000200020002000200099
:104B1C000000000000000000000000000000000089
:104B2C000000000000000000000000000000000079
:104B3C0000000000000000002000200020002000E9
:104B4C002000200020002000200020002000200059
:104B5C002000200020002000210021000000200067
:104B6C002000200000000000000020002000200099
:104B7C002000400040002000200021002100010006
:104B8C0001000100000000006108610840084008B5
:104B9C006008601040106008400840084008200879
:104BAC0000000000000000080000000000004000B1
:104BBC00400800000200010000002000200020003E
:104BCC0020002000200020002000200020000000F9
:104BDC0001000108200020002000200020002000FF
:104BEC0020002000200020002000200020002000B9
:104BFC002000200020002000000000000000000029
:104C0C000000000000002000200020002000000018
:104C1C000000000000000000000000000000000088
:104C2C000000000000000000000000000000000078
:104C3C0000000000000000002000200020002000E8
:104C4C002000200020002000200020002000200058
:104C5C002000200020002000200020002000000068
:104C6C002000200000002000200020002000200058
:104C7C002000200040002000000000000008000878
:104C8C00000820106018601840186018A028213106
:104C9C0041396139424142414239E130C0288020DA
:104CAC008020601840180008000800082000200030
:104CBC0020004000210000002000200020002000E7
:104CCC0020002000200020002000200020000000F8
:104CDC0001080108200020002000200020002000F6
:104CEC0020002000200020002000200020002000B8
:104CFC002000200000000000000000000000000068
:104D0C000000000000000000000000000000000097
:104D1C000000000000000000000000000000000087
:104D2C000000000000000000000000000000000077
:104D3C0000000000000000002000200020002000E7
:104D4C002000200020002000200020002000200057
:104D5C002000200020002000200020002000200047
:104D6C002000200020002000200000000000200077
:104D7C00200020002000400040080008201060188F
:104D8C0080206020634946628A8B6DAC2FC5F2DDB2
:104D9C0053EE73F674F674F633EED2DD50CD6CAC84
:104DAC00077B045A0039802880204010200800001E
:104DBC0000002100200020002000400040004000A6
:104DCC002000200020002000200020000000000017
:104DDC000100010020002000200020002000200005
:104DEC002000200000000000000000000000000077
:104DFC0000000000000000000000000000000000A7
:104E0C000000200000000000000000000000000076
:104E1C000000000000000000000000000000000086
:104E2C000000000000000000000000000000000076
:104E3C0000000000000000002000200020002000E6
:104E4C002000200020002000200020002000200056
:104E5C002000200000002000200020002000200066
:104E6C0020002000200000000000000000000000D6
:104E7C00000000002000000000088018A02001396C
:104E8C00C772CFB434E6D6F658FF78FF57FF36FF1B
:104E9C0016FFF5FE16FF16FF16FF16FF56FF57FFFF
:104EAC0036FFF6FEB1D5CB93045AE1288120811848
:104EBC0020002000200020002000400040002000A6
:104ECC002000200020002000200020000000000016
:104EDC000000000020002000200020002000200006
:104EEC002000200000000000000000000000000076
:104EFC000000000000000000000000000000200086
:104F0C002000200000000000000000000000000055
:104F1C0000000000200020002000200020000000E5
:104F2C000000000000000000000000000000000075
:104F3C0000000000000000002000200020002000E5
:104F4C002000200020002000200020002000200055
:104F5C002000200000000000200020002000200085
:104F6C002000200020000000200020000000000095
:104F7C000000000000088118C1286241698333DEFB
:104F8C0058FF17FF37FF37FF17F7F7EE17EF38F714
:104F9C0058F738F718F738F758F758F737EF36EF60
:104FAC0036F736F798FF37FF17FF10BDE551E128AC
:104FBC00C228201020080000000000082008000073
:104FCC0000002008200020002000200020002000ED
:104FDC0020002000200020002000200020002000C5
:104FEC0020002000200020002000200020002000B5
:104FFC0020002000200020002000200020002000A5
:10500C0020002000000000000000200020002000F4
:10501C0020000000200020002000200020000000C4
:10502C000000000000000000000000000000000074
:10503C0000000000000000002000200020002000E4
:10504C002000200020002000200020002000200054
:10505C002000200001000100200020002000200082
:10506C00200020002000200020002008000000006C
:10507C00000040088128C230C872B2D577FF36FFD5
:10508C00D5F636F737F738EF18DFD8CE56BEF5A57C
:10509C00949D749555955495959516AEB7C618D79D
:1050AC0038E757EF16EF36FFF6FE78FF38FF8EAC79
:1050BC00A349A02880182010000800080108010846
:1050CC000008200820082008000001000100200032
:1050DC0020002000200020002000200020002000C4
:1050EC0020002000200020002000200020002000B4
:1050FC0020002000200020002000200020002000A4
:10510C0020002000000020002000200020002000B3
:10511C0020002000200020002000200020000000A3
:10512C000000000000000000000000000000000073
:10513C0000000000000000002000200020002000E3
:10514C002000200020002000200020002000200053
:10515C00200020000200010021002000200020007F
:10516C0020002000000000000000200800000000CB
:10517C006010E22024416FAC19FF58FFD5F635FFC3
:10518C0056FF16EF33C692A5D084706C716492648E
:10519C0093649364745C745C9464926471649074AE
:1051AC003195F2B5D6E636F736FFF5FED6FE78FF2A
:1051BC0054EEE77AE2288118010801080208020877
:1051CC000108000800080008000001000000200091
:1051DC0020004000200020002000200020002000A3
:1051EC0020002000200020002000200020002000B3
:1051FC0020002000200020002000200000000000E3
:10520C0000002000200020002000200020002000B2
:10521C0020002000200020002000200020000000A2
:10522C000000000000000000000000000000000072
:10523C00000000000000010002000200020001005A
:10524C0000000000000001080118001800200018E0
:10525C000008200000100000600020000000000882
:10526C00000840008000200020082008000060108A
:10527C00A020E451F0E576FFF5F617EF7AEF3BD777
:10528C0018A6F474935C945CB55CD55CD564F56439
:10529C00F464D464D55CD55CD564D564D464B4644E
:1052AC00945C935CB3647685DABE7BDF59E716EFCA
:1052BC0035FF56FFEB83C028C130000800004000CA
:1052CC00400000000000610820002632908C40084D
:1052DC0021080100400820002000210022000100CC
:1052EC0020004008200820080008000800080000E2
:1052FC0000080008200020002000200020002000D2
:10530C0020002000200020000000000020002000D1
:10531C002000200000000000200000000000000021
:10532C000000000000000000000000000000000071
:10533C0000000000000800000000200020002000F9
:10534C0020002000400000000108001000080008A8
:10535C00600040000110000040006421A110000812
:10536C0000084000200020002008000860180229D6
:10537C00255255E656FFF5F657FF38E736BEF28450
:10538C00B26CB46CD464D564D564D564D464D45C88
:10539C00D45CD45CD55CD55CD55CD464D464D46466
:1053AC00B464B464D4649364716CB59D19DF58F71C
:1053BC0036FF15FF99FF2D9CC030E23020082000ED
:1053CC00000000000108000040006842EE73410834
:1053DC0000000208200040080000210021006208A3
:1053EC000000000020080000200820080000000039
:1053FC000000000020002000000000000000000061
:10540C002000200020002000200020002000200090
:10541C002000200000000000000000000000000040
:10542C000000000000000000000000002000200030
:10543C000000000020082000200020002000400078
:10544C00400040006000400020004100200020008F
:10545C008000600000100000641978C689520008B2
:10546C00411000004000600800082010E12882393B
:10547C0096E638FFF5F657F718E773A5B17C9264FA
:10548C00B464B464D464D464B464B464B464D464F0
:10549C00F55CF55CD55CD55CD45CD464D464D46424
:1054AC00D564D564F5649364926C506CF18CB7D66A
:1054BC0058EFF6EE57F799FF6A8B8028801820007A
:1054CC002000010801082108000020002000000035
:1054DC00210801002000200000000000000000084E
:1054EC0000082008200820002000200000002000D8
:1054FC002000000020002000000000000000000040
:10550C0020002000200020002000200020000000AF
:10551C00000000000000000000000000000000007F
:10552C00000000000000000000000000200020002F
:10553C00000000002008200020002000200020088F
:10554C002008200040004000410020008100400065
:10555C00400040000008400040006419A210000800
:10556C0000002000200000000008A028E030F3CD4F
:10557C0057FFF5F617EF38EF529D70749264D464B0
:10558C00D55CD564B464B464B36CB36CB464D464E7
:10559C00F55CF65CF564D464D464D464D464D464EB
:1055AC00D464D564B45CF564D46CB26C2F6CB084E8
:1055BC00B7CEBAF736EFF5F679FF666AA028601019
:1055CC000000010801100000400080004000400075
:1055DC000000210022000000401000100039055A84
:1055EC00001000080000620820002000400020008D
:1055FC00400000002000000000000000000000003F
:10560C0000000000200020002000200020002000CE
:10561C0020000000200020002000200020000000BE
:10562C00000000000000000000000000200020002E
:10563C002000000000000000010001000000000834
:10564C00000800002000410041000000000020087C
:10565C002000200000080000600040002000000036
:10566C00000041080000000060208028EB9378FFC8
:10567C0015F715FF7AE794A54F6CD374D464B55C19
:10568C00D65CB55CD564B464B36CB36CD364D464CD
:10569C00D55CD55CD464D464D464D464D464D4644C
:1056AC00D464D564D55CB45CD464D364F374706C8A
:1056BC00B17CD9C6B7FFF5F6F6FE95F64139C12097
:1056CC00000801080108010840002000200020000B
:1056DC0000002000020000000010001809AC33EE9E
:1056EC0080280008410800002000600020002000F5
:1056FC0020004000000000002000200020000000DE
:10570C00000000000000000020002000200020000D
:10571C00200020002000200020002000200000009D
:10572C00000000000000000000002000200020000D
:10573C0020000000200020000100010001080008EA
:10574C0000080008200040000000000800100010B5
:10575C00001000080008A1102000610000000008E3
:10576C002108000020080008A128A35174EE16FFA0
:10577C0015F756FF37A6706CB26CD464B45CF55C4C
:10578C001665B55CD55CD464D464D464D464D46438
:10579C00D45CD55CD45CD464D464D464D464D46454
:1057AC00D464D564B55C3665B45CB45C156D926438
:1057BC00926CD27415E757FFF6FEF6FE4CA4C0208F
:1057CC0061100008011001082000200040000000BA
:1057DC00000040080200485291CDC38A07B42CDD6A
:1057EC00A1590E94284A00002100400000006008D6
:1057FC0000002000000000002000200020002000FD
:10580C00000000000000000000002000200020002C
:10581C0020002000200020002000200000000000BC
:10582C0000000000200020002000200020002000AC
:10583C0000000000200020002000200000080008CC
:10584C000008200020002000000060186762001093
:10585C0000080108000000004000000020002008A3
:10586C000008200800008118A028EB9B98FFF5F693
:10587C0057F7D5E6F46C725CF56CB464D464D564FB
:10588C00B45CF564D55CD55CD45CD564D464D46468
:10589C00D464D464D464D464D464D464D464D4643C
:1058AC00D464D564F6649454F55CF664B45CD46446
:1058BC00D364B364D2B578F736FF36FFD6F66239C7
:1058CC0003290008000800084000200040082000C0
:1058DC0020002000000046528CB4EAD44AE50ADDD0
:1058EC006ED552C5074A0100210020080000601047
:1058FC0000000000200020002000200020002000DC
:10590C00000000000000000020002000200020000B
:10591C00200020000000000000000000000000003B
:10592C0000000000200020002000200020002000AB
:10593C00000000002000200000000000000800080B
:10594C0001002100410020000008E03073CD402010
:10595C000000230000082000200041000000200867
:10596C00000020080008A120213995EEF6FE16F75C
:10597C0058F791AD7354F564D45CB45CB464F564BD
:10598C00B45CD55CD55CD55CD55CD55CD564D46495
:10599C00D464B464D464D464D464D464B464B4649B
:1059AC00D464D564D564B55CD55CF55CD55CD45C4D
:1059BC00F464B35CAF84D7D637FFF5FE78FFCB8B9E
:1059CC00801841180008000040002000200020082A
:1059DC000000200040000008A03827BC4AE56CE518
:1059EC00827200100008000800080008001000086F
:1059FC0020082000200020002000200020000000B3
:105A0C00000000000000000020002000200020000A
:105A1C0020000000200000000000000020002000FA
:105A2C0000000000000020002000200020000000EA
:105A3C000000000020002000000000080008000802
:105A4C0001002100000000080010068B91E5A35115
:105A5C0000080100000000002100400020000000B0
:105A6C002008200840088018866258FFF6F637F7A1
:105A7C0038DF8F7CD55CD55CD55CD464D464D464BD
:105A8C00D464B45CD55CD55CD55CD55CD55CD46495
:105A9C00D464D464D464D464D464D464D464D4643A
:105AAC00D464D464D564D55CD55CD55CD55CD45C4D
:105ABC00D564D464506CF5B538F716FF57FFB2C5F2
:105ACC00E1288120000800002000200020000008B0
